:020000040800F2
:10000000F80A0020C901000813230008271F000870
:1000100011230008B907000841260008000000006D
:10002000000000000000000000000000172300088E
:10003000BB0700080000000015230008E1230008AA
:10004000E3010008E3010008E3010008E301000800
:10005000E3010008E3010008E3010008E3010008F0
:10006000E3010008E3010008E3010008E3010008E0
:10007000E3010008E3010008E3010008E3010008D0
:10008000E3010008E3010008E3010008E3010008C0
:10009000E3010008E3010008E3010008E3010008B0
:1000A000E3010008E3010008E3010008E3010008A0
:1000B000E30100085124000800000000E3010008EB
:1000C000E30100080000000000000000E301000858
:1000D00000000000E3010008E30100080000000048
:1000E000E3010008E3010008E301000800F002F862
:1000F00000F05AF80AA090E8000C82448344AAF168
:100100000107DA4501D100F04FF8AFF2090EBAE865
:100110000F0013F0010F18BFFB1A43F0010318473B
:10012000E0290000002A00000A444FF0000C10F8FB
:10013000013B13F0070408BF10F8014B1D1108BF65
:1001400010F8015B641E05D010F8016B641E01F805
:10015000016BF9D113F0080F1EBF10F8014BAD1C55
:100160000C1B09D16D1E58BF01F801CBFAD505E073
:1001700014F8016B01F8016B6D1EF9D59142D6D3CD
:10018000704700000023002400250026103A28BFF5
:1001900078C1FBD8520728BF30C148BF0B607047F9
:1001A0001FB51FBD10B510BD00F058F81146FFF780
:1001B000F7FF02F097FA00F076F803B4FFF7F2FFCA
:1001C00003BC00F07DF8000009488047094800475B
:1001D000FEE7FEE7FEE7FEE7FEE7FEE7FEE7FEE7F7
:1001E000FEE7FEE704480549054A064B7047000054
:1001F0004D240008ED000008F8040020F80A002053
:10020000F8060020F80600204FF0000200B5134663
:1002100094469646203922BFA0E80C50A0E80C5026
:10022000B1F12001BFF4F7AF090728BFA0E80C50D7
:1002300048BF0CC05DF804EB890028BF40F8042BD0
:1002400008BF704748BF20F8022B11F0804F18BF3D
:1002500000F8012B7047704770477047754600F0F3
:100260002BF8AE4605006946534620F00700854648
:1002700018B020B5FFF7B6FFBDE820404FF00006EC
:100280004FF000074FF000084FF0000B21F007017E
:10029000AC46ACE8C009ACE8C009ACE8C009ACE8C1
:1002A000C0098D46704710B50446AFF30080204664
:1002B000BDE81040FFF781BF004870479804002058
:1002C00001491820ABBEFEE726000200704700007F
:1002D00070B5044600688168C943C90717D18168B1
:1002E00021F00101816000F0D7FE05460AE000BF61
:1002F00000F0D2FE401B022804D920688068C04369
:10030000C00706D020688068C043C007F0D0002036
:1003100070BDA06A40F01000A062E06A40F00100E9
:10032000E062012070BD0000F8B50026044600968A
:1003300000688168C943C9072DD0816841F0010177
:100340008160164816490068B0FBF1F000E0401EDD
:1003500000900028FBD100F09FFE054616E000BF8C
:1003600000F09AFE401B022810D920688068C04324
:10037000C0070BD0A06A40F01000A062E06A40F015
:100380000100E06284F824600120F8BD20688068E4
:10039000C043C007E4D10020F8BD0000E002002007
:1003A00040420F002DE9F047DFF8B490002600BF6F
:1003B000C6EBC601484659F82120012A48D100EB76
:1003C00081014A68012A43D18A68012A40D1CA685A
:1003D000012A3DD10A69012A3AD14A69012A37D155
:1003E0008869012834D1344623E0C4EBC4010025D8
:1003F00009EB8107E9B2E0B200F014FA07EB8508D7
:1004000058F81C0C30B9E9B2E0B200F00BFA002049
:1004100047F8250058F81C0C012806D1E9B2E0B2D3
:1004200000F0CCF9012047F825006D1C072DE1DB19
:10043000641E002CD9DC0B484FF47A730A22416801
:10044000491C416008A10B4801F014FD01F0C2FDF8
:10045000761C082EACDBBDE8F04701F0EDBE0000D5
:10046000E40200200000002053636F72652B310D01
:100470000A000000540400202DE9F041404C20689F
:10048000072879D06268072A76D0A068072873D039
:100490003C482146A1F1E007C568086801F10C0657
:1004A000C0EBC000336807EB8000896800EB830075
:1004B000C1EBC101B36807EB810101EB830135B1E9
:1004C000012D57D0022D0CD0032D10D109E0C069A9
:1004D000012851D0C2EBC200726807EB800000EB2C
:1004E0008200C069012847D0C869012844D0264D40
:1004F00001220421284600F0C9FD012202212846DC
:1005000000F0C4FD00221021284600F0BFFD0025A8
:100510004FEA050816F8251014F8250000F082F9B6
:1005200054F8250056F82530C0EBC00207EB8202D4
:10053000401C42F8238044F825006D1C032DE9DBA4
:1005400000254FF0010800BF16F8251014F825000B
:1005500000F034F954F8251056F82520C1EBC101FC
:1005600007EB81016D1C41F82280032DECDBBDE817
:10057000F08101E0C069B8E7BDE8F041FFF712BFC4
:10058000C403002000000020001001402DE9F041CC
:10059000414E306800287CD04048A6F10C05314619
:1005A000C3682868A5F1E007C0EBC000096807EB45
:1005B000800000EB81008BB129463A464968012B47
:1005C000C1EBC10102EB81023146496802EB8101B6
:1005D00007D0022B16D0032B1CD113E050F8040CCB
:1005E00016E050F8040C012853D051F8040C0128EF
:1005F0004FD0A868B168C0EBC00007EB800000EBEB
:100600008100EBE750F8040C012842D051F8040CAB
:1006100001283ED0224C01220421204600F036FD64
:1006200001221021204600F031FD00220221204647
:1006300000F02CFD0024A04616F8241015F8240024
:1006400000F0F0F855F82400C0EBC00007EB800282
:1006500056F8240042F82080401E46F82400641C0E
:10066000032CE9DB00244FF0010800BF16F824102A
:1006700015F8240000F0A2F855F8241056F82420AC
:10068000C1EBC10107EB8101641C41F82280032CFE
:10069000ECDBBDE8F0810000D0030020000000206A
:1006A000001001402DE9F041404EB06806287AD094
:1006B0003F48A6F10C053146D0F80CC0A868A5F15A
:1006C000E007C0EBC000896807EB800000EB810009
:1006D000BCF1000F24D02C463B4621686468C1EB76
:1006E000C10103EB81083146C4EBC4040A684968C0
:1006F00003EB840308EB820203EB8101BCF1010FE1
:1007000006D0BCF1020F08D0BCF1030F0BD102E000
:100710005268012A47D0496800E05168012942D057
:10072000406801283FD0234C01220221204600F0DE
:10073000ADFC01221021204600F0A8FC002204217B
:10074000204600F0A3FC00244FEA040816F8241009
:1007500015F8240000F066F855F82400C0EBC0003E
:1007600007EB800256F8240042F82080401C46F82F
:100770002400641C032CE9DB00244FF0010800BFB7
:1007800016F8241015F8240000F018F855F8241075
:1007900056F82420C1EBC10107EB8101641C41F82C
:1007A0002280032CECDBBDE8F0810000D0030020A8
:1007B0000000002000100140FEE7704770B50D46B4
:1007C0000646002404EBC500C1B2304601F0DAFD54
:1007D000FF2001F057FF641CE4B2082CF2D370BD77
:1007E0002DE9F04789460024012115464FEA4008CB
:1007F00001EB400704EB0916F1B208F0FF0001F02D
:10080000C1FD285D01F03EFFF1B2F8B201F0BAFD82
:100810002819007C01F036FF641CE4B2102CE9D3E7
:10082000BDE8F08770B50D460646002404EBC50010
:10083000C1B2304601F0A6FD002001F023FF641C88
:10084000E4B2082CF2D370BDF8B50022009290F803
:10085000244083681646012C1CD0012480F82440D3
:10086000D3B14D680B691F249D4226D81F055B1B21
:10087000C3F103030D6803EB83039D40A7F58017C5
:100880002F439C40036844F440159C6BAC432743C2
:100890009F631EE00220F8BD4B68012B05D0826AE1
:1008A00042F020028262012213E003689C6B0D6813
:1008B0006FF3150444EAC5340AE05B1BC3F103037C
:1008C00003EB83039C40036844F440159C6BAC43EA
:1008D0009C6303689C68E443E40706D09C6847F285
:1008E0000105AC438D692C439C604B7D012B08D1E5
:1008F0008B69B3F5E04F08D0826A42F02002826231
:1009000001220B7D012B06D00CE003685C6844F4E7
:1009100080645C60F5E74B7DA3B1826A42F02002FF
:10092000826201220B68072405680A2B10D3EF6846
:100930000A3B03EB43039C40A7438C689C4027433E
:10094000EF600EE003685C6844F480545C60E9E7A3
:100950002F6903EB43039C40A7438C689C402743CB
:100960002F610B68102B01D0112B04D103689C68F8
:1009700044F400049C604B68012B10D0022B16D06D
:10098000032B03681BD01C6ACD686FF30B042C4348
:100990001C620B68102B19D0112B17D037E003689D
:1009A0005C69CD686FF30B042C435C61F1E703686D
:1009B0009C69CD686FF30B042C439C61E9E7DC690B
:1009C000CD686FF30B042C43DC61E2E7124C036843
:1009D000A34217D19C68240219D49C6844F40004F3
:1009E0009C600968102912D10C490D4B0968B1FBB4
:1009F000F3F101EB8101490000E0491E009100295B
:100A0000FBD104E0816A41F020018162012280F87B
:100A100024601046F8BD000000240140E0020020E0
:100A200040420F00F8B50024009490F82420254699
:100A3000012A12D0012280F824204A681F23072AA5
:100A40000DD20668776B521E02EB820293409F43E1
:100A50000B6893401F43776319E00220F8BD0668D6
:100A60000D2A0AD2376BD21F02EB820293409F43BA
:100A70000B6893401F43376309E0F76A0D3A02EBB6
:100A8000820293409F430B6893401F43F7620A68BA
:100A9000072306680A2A0AD3F7680A3A02EB4202D9
:100AA00093409F438B6893401F43F76008E037698A
:100AB00002EB420293409F438B6893401F43376190
:100AC0000A68102A01D0112A20D1124B02689A42DA
:100AD00017D193681B0219D4936843F40003936001
:100AE0000968102912D10C490C4A0968B1FBF2F1CE
:100AF00001EB8101490000E0491E00910029FBD172
:100B000004E0816A41F020018162012480F82450D0
:100B10002046F8BD00240140E002002040420F00C2
:100B20000068C06C704700002DE9F0414FF00007ED
:100B300004003D467ED0A06A002628B9E66284F80B
:100B40002460204600F07EF82046FFF7C1FBA16A32
:100B5000C90600D420B1A06A40F01000A06269E08C
:100B6000A16A21F4885141F00201A1626268E16941
:100B7000237B0A4347EA43010A43A1684FF4807785
:100B8000B94209D0012907D05FF0000194F814C0E0
:100B9000BCF1010F02D00AE03946F7E7F3B1A36ACE
:100BA00043F02003A362E36A43F00103E362236896
:100BB000D3F804C02CF4694C4CEA010CC3F804C00F
:100BC00021688B68DFF870C003EA0C0313438B6065
:100BD000A168B9420BD0012909D00CE0DFF85CC054
:100BE000A3690CEB43330B4343F40061DFE7218A35
:100BF0000D05A5F580152168CB6A23F470032B43FE
:100C0000CB62216889680E4B1940914208D1E66297
:100C1000A16A21F0020141F00101A162BDE8F08169
:100C2000A06A20F0020040F01000A062E06A40F0EC
:100C30000100E0620120F1E7FDF7E1FF00E0FFFFC6
:100C4000FE0E1FFF00B585B00021009101910291B9
:100C5000039100680E49884218D10E48816941F419
:100C600000718161816901F400710491816941F031
:100C7000040181618069694600F00400049002204B
:100C8000009003200190044800F018F905B000BD61
:100C90000024014000100240000801402DE9F84303
:100CA00000270D460446009700F0F6F980462068BC
:100CB0008168C90508D5A06A40F02000A06284F8C8
:100CC00024700120BDE8F8834168C90503D4C06AD7
:100CD00010F4700F2AD0022000F07CFA3B4909681A
:100CE000B1FBF0F62068036939490B424FEA610114
:100CF0004FEAA1121FD1C3684FEA611C13EA0C0F1F
:100D000019D103690B4225D1C068104222D11420A9
:100D100023E0681C0AD02DB100F0BEF9A0EB08005A
:100D2000A84203D920680068800725D5206800689C
:100D30008007EED52DE003690B4202D1C168114254
:100D400006D0026923490A4206D1C068084203D18D
:100D5000542002E0292000E0FC204643009816E0E1
:100D6000681C11D02DB100F097F9A0EB0800A84243
:100D70000AD90098B04207D2A06A40F00400A062ED
:100D800084F8247003209DE70098401C0090B04236
:100D9000E6D321686FF012000860A06A40F400708A
:100DA000A06220688068C0F3424007280CD1207BF5
:100DB00050B9A06A20F48070A062A06AC00403D475
:100DC000A06A40F00100A06200207BE7E002002062
:100DD000244992244992240070B5044690F82400D6
:100DE00001280DD0012084F824002046FFF79CFA4A
:100DF00002004FF0000005D084F82400104670BDBA
:100E0000022070BDA16A40F20123994341F4807130
:100E1000A1621F4D23681F49AB4218D10E6816F41A
:100E2000702F14D0A66A46F48016A6620E68760566
:100E300005D5A66A26F4005646F48056A662A66A30
:100E4000F6040AD5E66A26F00606E66206E0A66A19
:100E500026F48016A6625E68E9E7E06284F8240062
:100E60006FF00200186020688368C3F34243072BC9
:100E700005D1A84208D1096811F4702F04D0816807
:100E800041F480118160B9E7816841F4A001F9E77C
:100E9000002801400424014070B5044600F0FCF82D
:100EA0000546601C02D004480078044400F0F4F8C1
:100EB000401BA042FAD370BDD40200202DE9F84FA8
:100EC000DFF89C91002409F1040A0AF1040B23467F
:100ED0000F270BF1040EBBE00125A5402A40AA42D2
:100EE00076D1DFF880C14E68A6EB0C0866452BD0A2
:100EF0000DDC032E34D005DC36B3012E19D0022EC2
:100F00002FD11BE0112E16D0122E2AD119E0B8F5E0
:100F1000881F19D006DCB8F5803F15D0B8F5801FC2
:100F20001FD111E0B8F5001F0ED0B8F5041F18D17D
:100F30000AE0CB6815E0CB681B1D12E0CB680833D4
:100F40000FE0CB680C330CE08B682BB1012B4FF01A
:100F5000080303D0456104E0042302E0056100E0DA
:100F60000023FF2A01D8064601E000F104064FEAFB
:100F7000840501D9A5F12005D6F8008007FA05FC03
:100F800028EA0C0803FA05F548EA0508C6F80080C7
:100F90004D68ED005BD5344DAE6946F00106AE619B
:100FA000AD6924F0030605F0010500952F4D06EB11
:100FB000050CDCF80850A607360F07FA06F825EAF4
:100FC0000805DFF8AC80404503D14FF0000810E081
:100FD0003DE0DFF8A080404502D14FF0010808E075
:100FE000DFF89480404502D14FF0020801E04FF055
:100FF000030808FA06F848EA0508CCF808804D68A6
:10100000D9F80060ED034D4601D5164300E0964344
:101010002E604D68DAF80060AD03554601D51643E1
:1010200000E096432E604D68DBF80060ED025D46FF
:1010300001D5164300E096432E604D68DEF800604F
:10104000AD02754601D5164300E096432E60641C40
:101050000A6832FA04F57FF43FAFBDE8F88F00006C
:101060000004014000001110001002400000014087
:1010700000080140000C014000100140C26821EA54
:1010800002030A4043EA0241016170470AB101616B
:1010900070470904FBE700000148806870470000C2
:1010A000D4020020024881680278114481607047B0
:1010B000D4020020074810B5016841F0100101601A
:1010C000032000F075F80F2000F006F800F024F877
:1010D000002010BD0020024070B50D4D04464FF4B5
:1010E0007A712878B1FBF0F00A490968B1FBF0F099
:1010F00000F0C6FB48B9102C07D200222146501E32
:1011000000F036F800206C6070BD012070BD00005A
:10111000D4020020E00200200C4808B5816941F0AB
:1011200001018161816901F001010091C16941F012
:101130008051C161C06900F080500090044841684E
:1011400021F0E06141F00071416008BD00100240F3
:1011500000000140002809DB00F01F02012191403E
:101160004009800000F1E020C0F800117047000045
:10117000F0B40E4B1B680C46C3F30223C3F1070502
:10118000042D00D90425191D072901D2002300E0F0
:10119000DB1E012606FA05F1491E214099409E40BA
:1011A000761E16403143F0BC01F08CBA0CED00E025
:1011B000064900F0070208684FF6FF03184040EAAE
:1011C0000220034A10430860704700000CED00E065
:1011D0000000FA0510B529A401461DCC86B08DE8A3
:1011E0001D002AA02A4C006804900020012923D069
:1011F00002293AD010291DD161682268D20119D57F
:10120000C1F38342C9031DF8020009D5616804AA2D
:10121000C1F34041515C1F4AB2FBF1F1484301E088
:101220001D4948436168490204D440005FF003014E
:10123000B0FBF1F006B010BD226AC2F30121012912
:1012400003D1920701D5C803F4E7022905D1626AE8
:10125000920702D549F64040ECE70329EAD121681C
:101260008903E7D54FF22440E4E700F033F96168E1
:10127000C1F38131491C4900DAE70000020304058B
:10128000060708090A0B0C0D0E0F101001020000D2
:101290000010024000127A0000093D002DE9F843D9
:1012A00005460078354CC00754D0E0690026C000E0
:1012B00008D4E06940F08050E061E069012600F068
:1012C000805000902E480168C90512D401688046FC
:1012D00041F480710160FFF7DFFE074605E000BFC3
:1012E000FFF7DAFEC01B642823D8D8F80000C00539
:1012F000F6D5206A10F4407021D0A98801F440711D
:1013000081421CD0206A1F49012220F440700A60EB
:1013100000220A602062C00711D0FFF7BDFE074619
:1013200041F2883808E000BFFFF7B6FEC11B414517
:1013300002D90320BDE8F883206A8007F4D5206A2B
:10134000696820F44070084320621EB1E06920F013
:101350008050E0612878800705D56068A96820F48E
:101360004040084360602878C00605D56068E96899
:1013700020F48000084360600020DBE7001002409A
:1013800000700040400442422DE9F0470F4605003E
:1013900061D0434E306800F00700B84209D230688F
:1013A00020F0070038433060306800F00700B84292
:1013B00051D128683B4C810712D5400703D560689E
:1013C00040F4E06060602878000703D5606840F46E
:1013D000605060606068A96820F0F00008436060B9
:1013E0002878C00728D06868012810D02168022812
:1013F00010D0890700292EDA616821F0030101432A
:101400006160FFF749FE804641F288390DE02168AE
:101410008903EFE78901EDE7FFF73EFEA0EB080146
:10142000494502D90320BDE8F0876068696800F08B
:101430000C00B0EB810FEFD1306800F00700B8422C
:101440000BD9306820F0070038433060306800F076
:101450000700B84201D00120E5E72878400705D50C
:101460006068E96820F4E06008436060287800075D
:1014700006D56068296920F4605040EAC1006060C8
:1014800000F038F86168084AC1F30311515CC840A4
:101490000649086006480068FFF71EFE0020C2E704
:1014A0000020024000100240402A0008E002002014
:1014B000D80200200448054900684968044AC1F37D
:1014C0000221515CC8407047E00200200010024039
:1014D000502A00080448054900684968044AC1F3D5
:1014E000C221515CC8407047E00200200010024059
:1014F000502A000812A185B00FC98DE80F0014A072
:10150000144A006804905168134801F00C03042B3E
:1015100010D0082B0ED1C1F38343C9031DF803007B
:101520000AD5516804AAC1F34041515C0A4A5043AC
:10153000B0FBF1F005B0704708494843FAE70000F6
:1015400002030405060708090A0B0C0D0E0F101004
:10155000010200000010024000127A0000093D0064
:101560002DE9F84F040070D02078C04DC00749D055
:101570006868C0F38100012807D06868C0F3810063
:10158000022809D16868C00306D52868800339D5C8
:1015900060680028E7D035E06068B0F5803F0BD088
:1015A00010B1B0F5A02F11D0286820F48030286049
:1015B000286820F4802002E0286840F48030286009
:1015C000606890B1FFF768FD06460AE0286840F4BD
:1015D00080202860F0E700BFFFF75EFD801B6428D5
:1015E00073D828688003F7D50CE0FFF755FD064651
:1015F00005E000BFFFF750FD801B6428F0D8286885
:101600008003F7D420789A4E80074FF001094FF0FD
:10161000000839D5686810F00C0F07D06868C0F36F
:101620008100022809D16868C00306D428688007B1
:1016300014D52069012808D110E02069B0B1C6F89E
:101640000090FFF729FD074605E00AE1FFF724FDBA
:10165000C01B0228C4D828688007F7D528686169AC
:1016600020F0F80040EAC10028600DE0C6F80080D4
:10167000FFF712FD074604E0FFF70EFDC01B02282E
:1016800023D828688007F7D4207800072CD579481C
:10169000A169D9B1C0F80090FFF7FEFC074604E04D
:1016A000FFF7FAFCC01B02280FD8686A8007F7D53D
:1016B00071484FF4FA510068B0FBF1F0009000BFA0
:1016C0000098411E0091FAD20EE080E0C0F8008040
:1016D000FFF7E2FC074604E0FFF7DEFCC01B022830
:1016E00075D8686A8007F7D42078400760D5E86924
:1016F0000027C00008D4E86940F08050E861E8693C
:10170000012700F0805000905C480168C90513D49F
:101710000168834641F480710160FFF7BDFC824699
:1017200006E000BFFFF7B8FCA0EB0A0064284ED823
:10173000DBF80000C005F5D5E06801280AD008B143
:10174000052813D0286A20F001002862286A20F0BA
:10175000040002E0286A40F001002862E06841F2DB
:10176000883B98B1FFF798FC82460BE0286A40F06E
:1017700004002862EEE700BFFFF78EFCA0EB0A0131
:1017800059455AD8286A8007F6D50CE0FFF784FC43
:10179000824605E0FFF780FCA0EB0A0159454CD8D2
:1017A000286A8007F6D41FB1E86920F08050E8610C
:1017B000E06988B36968C1F38101022944D0022835
:1017C000C6F8608004D0FFF767FC044638E034E0D8
:1017D000FFF762FC074604E0FFF75EFCC01B02282F
:1017E0002BD828688001F7D4206AB0F5803F05D156
:1017F0006868A16820F4003008436860D4E90801F3
:101800000843696821F4741108436860C6F8609061
:10181000FFF742FC044606E025E000BFFFF73CFC72
:10182000001B022809D828688001F7D51BE000BFFB
:10183000FFF732FC001B022802D90320BDE8F88F15
:1018400028688001F4D40EE00128F7D06868226A85
:1018500000F48031914204D1616A00F47010884232
:1018600001D00120EAE70020E8E700000010024074
:101870000000424280044242E0020020007000402A
:1018800010B5401EB0F1807F01D3012010BD4FF094
:10189000E02460610F21601700F014FF0020A061B8
:1018A00007202061002010BD7047704770B590F888
:1018B0003C20012A23D0012480F83C40022280F8F9
:1018C0003D2003685A689D6822F070060A6832431A
:1018D0005A600C4B02689A4205D0B2F1804F02D098
:1018E000094B9A4204D1496825F08003194391605D
:1018F00080F83D40002180F83C10084670BD022071
:1019000070BD0000002C01400004004010B5040030
:1019100003D094F83D0010B107E0012010BD002075
:1019200084F83C00204600F01FF8022084F83D00B7
:10193000211D206800F092FD012084F8460084F803
:101940003E0084F83F0084F8400084F8410084F8A9
:10195000420084F8430084F8440084F8450084F889
:101960003D00002010BD000008B500680B4988420A
:1019700012D10B48C16941F00201C161C069002266
:1019800000F00200009011461D20FFF7F1FBBDE8BA
:1019900008401D20FFF7DEBB08BD0000000400402A
:1019A0000010024090F83D10012901D0012070473D
:1019B000022180F83D100168CA6842F00102CA6045
:1019C00000680A49884205D0B0F1804F02D008492A
:1019D000884204D1816801F00701062903D001681B
:1019E00041F001010160002070470000002C01401F
:1019F000000400400168CA6822F00102CA60016860
:101A00000A6A41F211131A4207D10A6A9B101A425C
:101A100003D10A6822F001020A60012180F83D101A
:101A20000020704770B5044690F83C00012817D09C
:101A3000012584F83C50022084F83D00206882682B
:101A400022F0770222F47F4282600868502830D06A
:101A50000DDC20284DD005DC98B310283BD148E0A0
:101A6000022070BD302844D0402834D139E06028AD
:101A700028D0702806D0B0F5805F2CD0B0F5005F7C
:101A800029D10AE0CB68D1E90121206800F014FDDA
:101A90002068816841F0770109E0CB68D1E9012134
:101AA000206800F009FD2068816841F48041816070
:101AB00011E0CA684968206800F010FD50212068D4
:101AC00007E016E0CA684968206800F018FD602148
:101AD000206800F0FBFC84F83D50002084F83C00B6
:101AE00070BDCA684968206800F0F8FC4021206891
:101AF000EFE7226801461046EBE7704770B50446F1
:101B0000006801694FF00005C943890715D4C16811
:101B1000C943890711D4E91E01610120207720689B
:101B200080698007204602D0FFF7E7FF04E000F05D
:101B300098F8204600F096F8257720680169C94397
:101B4000490717D4C168C943490713D46FF004018A
:101B50000161022020772068806910F4407F2046D0
:101B600002D0FFF7CAFF04E000F07BF8204600F047
:101B700079F8257720680169C943090716D4C16837
:101B8000C943090712D46FF00801016104202077CE
:101B90002068C0698007204602D0FFF7AEFF04E04E
:101BA00000F05FF8204600F05DF8257720680169B5
:101BB000C943C90617D4C168C943C90613D46FF015
:101BC00010010161082020772068C06910F4407F6F
:101BD000204602D0FFF791FF04E000F042F82046D3
:101BE00000F040F8257720680169C943C90708D18A
:101BF000C168C943C90704D1891E0161204600F0AC
:101C000033F820680169C943090609D4C168C9438A
:101C1000090605D46FF0800101612046FFF744FEFC
:101C200020680169C943490609D4C168C943490606
:101C300005D46FF040010161204600F053F82068A0
:101C40000169C94389060BD4C168C943890607D411
:101C50006FF0200101612046BDE87040FFF725BE0E
:101C600070BD70477047000070B500681A4988421F
:101C700027D11A4C1A4D206978B1012817D00228B3
:101C800020D003281DD110212846FFF7F7F90121A4
:101C90002846FFF7F3F9002012E001212846FFF75C
:101CA000EDF902212846FFF7E9F9012008E00221B9
:101CB0002846FFF7E3F904212846FFF7DFF9022061
:101CC000206170BD04212846FFF7D8F9102128466D
:101CD000FFF7D4F90320F3E70004004000000020E0
:101CE00000100140704770B5040004D094F83D0026
:101CF000002510B106E0012070BD84F83C5020465C
:101D000000F022F8242084F83D002068C16821F406
:101D10000051C160204600F005FC2068016921F4F3
:101D2000904101612068416921F02A0141612068E8
:101D3000C16841F40051C1602564202084F83D0051
:101D400084F83E00002070BD10B586B000210091DF
:101D500001910291039100681349884222D11348EE
:101D6000816941F480418161816901F4804104917C
:101D7000816941F00401816180690D4C00F004002B
:101D800004904FF48060009069462046FFF796F873
:101D900060150090022001900320039069462046C0
:101DA000FFF78CF806B010BD00380140001002406B
:101DB000000801402DE9F84F044690F83E009A468D
:101DC00016460D46202853D1FDB1F6B194F83C00DB
:101DD00001284DD0012084F83C00002727642220F0
:101DE00084F83E002763FFF757F9A6858146E6850C
:101DF000A0684FF48058404501D1206940B12E467B
:101E00005FF0000584F83C7027E00120BDE8F88F02
:101E10000026F7E74B46002220212046CDF800A0FF
:101E200000F0DCFB08B10320F0E726B1A0684045D4
:101E30001BD038B108E020684068C0F3080025F8DE
:101E4000020B07E0206980B12068406800F07F0045
:101E500006F8010BE08D401EE085E08D0028D9D109
:101E6000202084F83E000020D0E720684068EFE79B
:101E70000220CBE72DE9F843044690F83D001F46C9
:101E800016460D4620284CD1C5B1BEB194F83C0091
:101E9000012846D0012084F83C004FF00008C4F827
:101EA0004080212084F83D00FFF7F6F8A6848146A3
:101EB000E684A068B0F5805F03D004E00120BDE8AF
:101EC000F883206928B12E465FF0000584F83C8035
:101ED0000EE00026FAE78021204600F07FFBA0B943
:101EE000AEB116F8010B21684860E08C401EE0841A
:101EF000E08C4B464FF0000200970028EBD14FF0EA
:101F00004001204600F06AFB30B10320D7E735F8E6
:101F1000020BC0F30800E6E7202084F83D00002013
:101F2000CDE70220CBE7FEE710B5302000F08AFBBA
:101F30000520FEF7B1FF0C2000F084FB0520FEF722
:101F4000ABFF012000F07EFB0520FEF7A5FF062079
:101F500000F078FBBDE810400520FEF79DBF0000B3
:101F600010B5064A06210020FEF73AFC034A072175
:101F70002032BDE810400020FEF732BC54000020A3
:101F800070B500240A4D0226E01704EB907020F093
:101F90000301611A091D06EBA00005EB4412C9B24A
:101FA000C0B2FEF71DFC641C082CEDDB70BD000008
:101FB000D401002010B5064A06210020FEF710FCCF
:101FC000034A07212032BDE810400020FEF708BC7C
:101FD000140000202DE9F041234D4FF47A7705F1EC
:101FE00094046868B8420DDB42F2107190FBF1F284
:101FF00001FB120090FBF7F004EB401204210120DA
:10200000FEF7EEFB6868642664280BDB90FBF7F1B3
:1020100007FB110090FBF6F004EB401205210120B4
:10202000FEF7DEFB68680A270A280BDB90FBF6F157
:1020300006FB110090FBF7F004EB40120621012093
:10204000FEF7CEFB686800280BDB90FBF7F107FB7F
:10205000110004EB4012BDE8F04107210120FEF71A
:10206000BFBBBDE8F08100000000002070B50D4D41
:10207000002400BF04EA050007284FEAE47004EBDF
:10208000107020F00F01A4EB0101C9B2C0F30710DA
:1020900005D0FEF7C7FB641C802CEBDB70BDFEF7A0
:1020A0008DFBF8E70F00008030B58BB0002407945B
:1020B00008941C2168460994FEF7A6F819481849A7
:1020C0000125846001600573047505614FF460218A
:1020D0004460C161FEF728FD08B172B6FEE7CDE9A4
:1020E000085407A90F480795FEF79CFC08B172B683
:1020F000FEE7009501954FF4E04006908DF81540FD
:10210000049502948DF81440694606480394FEF73E
:102110009BFB002801D072B6FEE70BB030BD00007B
:1021200000240140DC0300202DE9F04186B00024AA
:1021300024480094019402940394816941F00801B9
:102140008161816901F008010491816941F0040114
:102150008161816901F004010491816941F02001EC
:102160008161816901F020010491816941F01001D0
:1021700081618069144F00F0100041F6FF750490F2
:10218000002229463846FEF781FFDFF84080002212
:1021900077214046FEF77AFF009502260125039637
:1021A000CDE9015469463846FEF788FE7720CDE92F
:1021B0000005CDE9024669464046FEF77FFE06B0BF
:1021C000BDE8F08100100240000C01400010014009
:1021D00010B586B00024174800940194029403942B
:1021E000049413490594016041F63F71C0E901145C
:1021F0006321C0E903148461FFF788FB08B172B65C
:10220000FEE74FF48050009069460A48FFF70AFC49
:1022100008B172B6FEE7049404A906480594FFF7D6
:1022200045FB002801D072B6FEE706B010BD0000E5
:10223000000400400C0400202DE9F041324B4FF423
:10224000C871324D58880224B0FBF1F201FB120034
:102250006421B0FBF1FC032004220021012705F1D9
:102260000C06C3F80CC0BCF1000F09D0BCF1010F83
:1022700009D0BCF1020F0DD0BCF1030F10D13AE030
:102280002960346008E02C6030606F607060A96085
:10229000B06005E02F60306069607060A960B26076
:1022A0001A4A0020B2F1E00255F8204056F820C04A
:1022B000C4EBC40402EB840454F82C40012C20D05D
:1022C000401C0328F0DB00244FEA020816F8241013
:1022D00015F82400FEF772FA55F82400C0EBC0018F
:1022E00008EB810056F82410641C032C40F8217080
:1022F000ECDBBDE8F0812F60306069607260AF6038
:10230000CDE79960F5E7000000000020C40300203D
:10231000FEE7FEE77047704770B5194D044600F0C0
:10232000010201212846FEF7B1FEC4F3400202215A
:102330002846FEF7ABFEC4F3800204212846FEF7D0
:10234000A5FEC4F3C00208212846FEF79FFEC4F391
:10235000001210212846FEF799FEC4F340122021F6
:102360002846FEF793FEC4F3801240212846FEF76C
:102370008DFEE2092846BDE870408021FEF786BE4A
:10238000000C01402DE9F0410C464FF48071134DD3
:102390004F000646402C0BD301222846FEF776FE5E
:1023A000002239462846FEF771FE403CE4B208E0C0
:1023B00000222846FEF76AFE012239462846FEF72B
:1023C00065FE44F0400000F03DF90A20FEF764FD90
:1023D00046F0B800BDE8F04100F034B9000C01400F
:1023E000FEF760BE30B593B028216846FDF70CFFBC
:1023F00014210AA8FDF708FF002401200F940225EC
:102400000490009510201194059010941294079454
:102410006846FFF7A5F808B172B6FEE70F20CDE9D0
:102420000A040C940D9400210AA80E94FEF7ACFF48
:1024300008B172B6FEE70FA80F951194FEF72EFFB4
:10244000002801D072B6FEE713B030BD704700001F
:102450000148FFF753BB00000C04002070B5026870
:10246000134B144C4FF08046984203D0B04201D039
:10247000A04203D122F070054A682A43984203D053
:10248000B04201D0A04203D122F44074CA68224372
:102490004C6922F08002224302608A68C2620A68A4
:1024A0008262984201D1096901630121416170BDD5
:1024B000002C01400004004010B5846842EA032269
:1024C00024F47F440A432243826010BD826822F0D4
:1024D00070020A4342F007018160704710B5036A39
:1024E000046A24F001040462846924F0F00444EADC
:1024F000021423F00A020A438461026210BD10B57F
:10250000036A23F0100303628369046A23F47043AF
:1025100043EA023224F0A00343EA0111826101621E
:1025200010BD000070B5044600680169E26821F43E
:102530004051114301612169A06808436169084362
:102540002168CA6841F20C639A430243CA6020685A
:102550004169A26921F44071114341611E4920681B
:10256000884202D1FEF7B6FF01E0FEF7A3FF00EBC1
:10257000C00101EB0012606864218000B2FBF0F33F
:10258000B3FBF1F36FF018067343B2FBF0F5B2FB47
:10259000F0F605EB8305322303EB0515B5FBF1F5EA
:1025A000B6FBF1F605F0F00505EB0615B2FBF0F60B
:1025B000B2FBF0F0B0FBF1F06FF01802504306EB05
:1025C000800003EB0010B0FBF1F0216800F00F0079
:1025D0002844886070BD0000003801402DE9F041BA
:1025E000984617460E460446069D1DE0681C1BD003
:1025F0002DB1FEF751FDA0EB0800A84214D92068C8
:10260000C16821F4D071C1602068416921F00101E5
:102610004161202084F83D0084F83E00002084F8C9
:102620003C000320BDE8F0812068006836EA000025
:1026300004D00020B842D9D00020F3E70120F9E708
:10264000FEE7000070B50E4C064600224FF4806194
:102650002046FEF71BFD0022E1142046FEF716FD82
:102660000122150329462046FEF710FD3046FFF7EC
:1026700053FE29462046BDE870400022FEF706BD05
:10268000000C014070B50E4C064601229102204616
:10269000FEF7FCFC0022E1142046FEF7F7FC0122C5
:1026A000150329462046FEF7F1FC3046FFF734FEBD
:1026B00029462046BDE870400022FEF7E7BC000036
:1026C000000C01400907090E002804DB00F1E0209E
:1026D00080F80014704700F00F0000F1E02080F84F
:1026E000141D70472DE9F041FEF7E4FCFFF77AFE78
:1026F000FFF71AFD8D488C49002401604FF41651F4
:10270000C0E901140C21C460C0E904418461C461C2
:10271000FFF7E9FA08B172B6FEE7FFF759FDFFF7D8
:10272000C3FC834D002201212846FEF7AFFC0122A5
:1027300002212846FEF7AAFC012204212846FEF7C2
:10274000A5FC012210212846FEF7A0FC7748483856
:10275000FFF728F9FFF7E8FBFFF788FCFFF72AFCF3
:102760004FF47A763346172272A17048FFF782FB46
:1027700033462B2275A16D48FFF77CFB33464B2275
:102780007D496A48FFF776FB33463E227BA16748C6
:10279000FFF770FB3346592288496448FFF76AFB0C
:1027A0003346302286A16148FFF764FB904B00203E
:1027B000C0EBC002002103EB820200BF42F82140BF
:1027C000491C0729FADB401C0828F1DB894C274605
:1027D0006420FEF761FB6423012286495348FFF71A
:1027E000E9FA3878202861D0A0680128F0D14F4854
:1027F0004838FFF7FFF8002201212846FEF746FC83
:10280000012202212846FEF741FC0122042128462C
:10281000FEF73CFC012210212846FEF737FCFFF7AB
:102820009FFBFFF7D7FBFFF707FDA068002851D0FB
:102830006420FEF731FB3D487838FEF7CDFA3B487F
:1028400031467838FEF72AFA38487838FEF768F9C2
:1028500080B24FF4C871B0FBF1F201FB120160804D
:102860004FF0C808B1FBF8F0C2B220212846FEF7AD
:102870000DFC6188B1FBF8F208FB12106421B0FB7B
:10288000F1F240212846FEF701FC33460122594966
:102890002648FFF78FFA387861280AD064280ED0CE
:1028A000FDF7EAFD3346072253A10DE00120A060A9
:1028B0009DE7FDF76BFE3346072251A104E0FDF7CB
:1028C000F1FE3346082250A11848FFF7D3FA7320CF
:1028D0003870AAE7012211462846FEF7D7FB0122ED
:1028E00002212846FEF7D2FB012204212846FEF7EA
:1028F000CDFB012210212846FEF7C8FB33460D22EE
:1029000043A10A48FFF7B6FA3346202244A10748FC
:10291000FFF7B0FAFFF734FB47F23050FEF7BCFA8E
:102920000020BDE8F0810000003801405404002080
:102930000010014057656C636F6D6520746F2074E3
:1029400068652067616D652E0D0A0000596F75205E
:1029500063616E20696E70757420275370616365C2
:102960002720746F20737461727420746865206707
:10297000616D652E0D0A0000B42A0008416C736F6A
:102980002C796F752063616E20757365207468659E
:1029900020706F7420746F20636F6E74726F6C2080
:1029A0007468652074797065207066206E6578742F
:1029B00020626C6F636B2E0D0A000000582A00081D
:1029C0004E6F772C20796F752063616E20696E7071
:1029D0007574202773706163652720746F2073748A
:1029E000617274207468652067616D652E0D0A0040
:1029F000E402002000000020446F776E0D0A000002
:102A00004C6566740D0A000052696768740D0A000F
:102A100047616D65204F7665722E0D0A000000003B
:102A2000506C656173652073746F7020616E6420F3
:102A3000656E64207468652067616D652E0D0A00FF
:102A4000000000000000000001020304060708095E
:102A50000000000001020304416674657220757372
:102A6000652074686520706F742C20646F6E277405
:102A700020666F7267657420746F20636C69636B86
:102A800020746865207465726D696E616C2077686A
:102A9000656E20796F752077616E7420746F206D7C
:102AA0006F76652074686520626C6F636B2E0D0A0B
:102AB00000000000596F752063616E20696E7075AB
:102AC0007420274127286C65667429206F7220279F
:102AD000442728726967687429206F72202753275A
:102AE00028646F776E2920746F20636F6E74726F25
:102AF0006C2074686520626C6F636B2E0D0A000099
:102B0000202B000800000020E4020000280100083B
:102B1000942C0008E402002014080000840100083E
:102B20000114200F04244484649C40300FC808081A
:102B30002818101010080601824C201806010618EB
:102B400020408025404042CC1CFC0402043304FC9D
:102B5000100F40201F20404F4442407F42444340DA
:102B6000280D804020908886808080838C103029BA
:102B700011131807554080403F101090523410FF39
:102B800010345280708F0808F8081808829A56632B
:102B900022528E272C330C3330195D2B0201012A6F
:102BA000025E412C030408018B0403A5F302FFAA73
:102BB0000FC31940858141221C3D080C0A0942813E
:102BC000195D7E11191523C131C96015C0300C0380
:102BD00092F8398D1B010F04711B1F11017A213EE0
:102BE000493F999E4FC03028242221CC89C0892199
:102BF000194A6E816119050350D9BF111C8C5221ED
:102C0000010B16528C401C1C224101A3C23C1A0825
:102C1000F3A11CF80402015C82848E8249407B0887
:102C200004655808C0B08C828CB0C03C730C0B4457
:102C30000B0C08480C02FE04186080601804FE02A9
:102C4000211A0F17195F390839201A42015DE20273
:102C5000020E413A0F5F5B0808101AF08E19015CF2
:102C60000408F0EF190B297F59A32D02061A609969
:102C70004D80601A066119237C060806C1091E6092
:102C800029201AC2227B2418205965394B31821021
:042C90001324F40015
:04000005080000ED02
:00000001FF
